{
  "contractName": "ConvertLib",
  "abi": [
    {
      "constant": false,
      "inputs": [
        {
          "name": "amount",
          "type": "uint256"
        },
        {
          "name": "conversionRate",
          "type": "uint256"
        }
      ],
      "name": "convert",
      "outputs": [
        {
          "name": "convertedAmount",
          "type": "uint256"
        }
      ],
      "payable": false,
      "stateMutability": "nonpayable",
      "type": "function"
    }
  ],
  "bytecode": "0x60d161002f600b82828239805160001a6073146000811461001f57610021565bfe5b5030600052607381538281f30073000000000000000000000000000000000000000030146060604052600436106056576000357c0100000000000000000000000000000000000000000000000000000000900463ffffffff16806396e4ee3d14605b575b600080fd5b8115606557600080fd5b608260048080359060200190919080359060200190919050506098565b6040518082815260200191505060405180910390f35b60008183029050929150505600a165627a7a723058204faaf136adcf9baec0655c2184053a2b5d66a097e02397ccc988f418fe434f0d0029",
  "source": "pragma solidity ^0.4.16;\n\nlibrary ConvertLib{\n    function convert(uint amount,uint conversionRate) public returns (uint convertedAmount)\n\t{\n        return amount * conversionRate;\n    }\n}\n",
  "sourcePath": "/Users/kyrastephen/SmartSponsor/truffle_tutorial/truffleWorkspace/contracts/ConvertLib.sol",
  "compiler": {
    "name": "solc",
    "version": "0.4.21+commit.dfe3193c.Emscripten.clang"
  },
  "schemaVersion": "2.0.0",
  "updatedAt": "2018-04-07T17:53:16.039Z"
}