{
  "contractName": "dynamic_set_int",
  "abi": [
    {
      "constant": true,
      "inputs": [
        {
          "name": "",
          "type": "address"
        }
      ],
      "name": "permissions",
      "outputs": [
        {
          "name": "",
          "type": "bool"
        }
      ],
      "payable": false,
      "stateMutability": "view",
      "type": "function"
    },
    {
      "constant": true,
      "inputs": [],
      "name": "public_int",
      "outputs": [
        {
          "name": "",
          "type": "int256"
        }
      ],
      "payable": false,
      "stateMutability": "view",
      "type": "function"
    },
    {
      "constant": true,
      "inputs": [
        {
          "name": "",
          "type": "address"
        }
      ],
      "name": "int_data",
      "outputs": [
        {
          "name": "",
          "type": "int256"
        }
      ],
      "payable": false,
      "stateMutability": "view",
      "type": "function"
    },
    {
      "inputs": [],
      "payable": false,
      "stateMutability": "nonpayable",
      "type": "constructor"
    },
    {
      "constant": false,
      "inputs": [
        {
          "name": "_data",
          "type": "int256"
        }
      ],
      "name": "set_int_data",
      "outputs": [],
      "payable": false,
      "stateMutability": "nonpayable",
      "type": "function"
    }
  ],
  "bytecode": "0x6060604052341561000f57600080fd5b600073ffffffffffffffffffffffffffffffffffffffff16600160009054906101000a900473ffffffffffffffffffffffffffffffffffffffff1673ffffffffffffffffffffffffffffffffffffffff1614156101005733600160006101000a81548173ffffffffffffffffffffffffffffffffffffffff021916908373ffffffffffffffffffffffffffffffffffffffff1602179055506001600360003373ffffffffffffffffffffffffffffffffffffffff1673ffffffffffffffffffffffffffffffffffffffff16815260200190815260200160002060006101000a81548160ff0219169083151502179055505b61025c8061010f6000396000f300606060405260043610610062576000357c0100000000000000000000000000000000000000000000000000000000900463ffffffff16806301e88208146100675780634bcdc8b5146100b8578063b90f636d146100db578063f444cd8714610104575b600080fd5b341561007257600080fd5b61009e600480803573ffffffffffffffffffffffffffffffffffffffff16906020019091905050610151565b604051808215151515815260200191505060405180910390f35b34156100c357600080fd5b6100d96004808035906020019091905050610171565b005b34156100e657600080fd5b6100ee610212565b6040518082815260200191505060405180910390f35b341561010f57600080fd5b61013b600480803573ffffffffffffffffffffffffffffffffffffffff16906020019091905050610218565b6040518082815260200191505060405180910390f35b60036020528060005260406000206000915054906101000a900460ff1681565b60011515600360003373ffffffffffffffffffffffffffffffffffffffff1673ffffffffffffffffffffffffffffffffffffffff16815260200190815260200160002060009054906101000a900460ff161515141561020f5780600260003373ffffffffffffffffffffffffffffffffffffffff1673ffffffffffffffffffffffffffffffffffffffff168152602001908152602001600020819055505b50565b60005481565b600260205280600052604060002060009150905054815600a165627a7a723058202aa831384c107a8e57e6ce6df5cf27bb7a76026a05799685e9933cc7ff31eb980029",
  "source": "pragma solidity ^0.4.16;\r\n\r\ncontract dynamic_set_int {\r\n    int256 public public_int;\r\n    address inital_owner;\r\n    mapping (address => int256) public int_data;\r\n    mapping (address => bool) public permissions;\r\n    function dynamic_set_int() public {\r\n        if(inital_owner == address(0)){\r\n            inital_owner = msg.sender;\r\n            permissions[msg.sender] = true;\r\n        }\r\n    }\r\n    function set_int_data(int256 _data) public {\r\n        if(permissions[msg.sender] == true){\r\n            int_data[msg.sender] = _data;\r\n        }\r\n    }  \r\n}",
  "sourcePath": "/Users/kyrastephen/SmartSponsor/truffle_tutorial/truffleWorkspace/contracts/dynamic_set_int.sol",
  "compiler": {
    "name": "solc",
    "version": "0.4.21+commit.dfe3193c.Emscripten.clang"
  },
  "schemaVersion": "2.0.0",
  "updatedAt": "2018-04-07T17:53:16.046Z"
}