{
  "contractName": "dynamic_set_string",
  "abi": [
    {
      "constant": true,
      "inputs": [
        {
          "name": "",
          "type": "address"
        }
      ],
      "name": "string_data",
      "outputs": [
        {
          "name": "",
          "type": "string"
        }
      ],
      "payable": false,
      "stateMutability": "view",
      "type": "function"
    },
    {
      "constant": true,
      "inputs": [],
      "name": "setter",
      "outputs": [
        {
          "name": "",
          "type": "address"
        }
      ],
      "payable": false,
      "stateMutability": "view",
      "type": "function"
    },
    {
      "inputs": [
        {
          "name": "tmpString",
          "type": "string"
        }
      ],
      "payable": false,
      "stateMutability": "nonpayable",
      "type": "constructor"
    }
  ],
  "bytecode": "0x6060604052341561000f57600080fd5b6040516103923803806103928339810160405280805182019190505080600160003373ffffffffffffffffffffffffffffffffffffffff1673ffffffffffffffffffffffffffffffffffffffff168152602001908152602001600020908051906020019061007e929190610085565b505061012a565b828054600181600116156101000203166002900490600052602060002090601f016020900481019282601f106100c657805160ff19168380011785556100f4565b828001600101855582156100f4579182015b828111156100f35782518255916020019190600101906100d8565b5b5090506101019190610105565b5090565b61012791905b8082111561012357600081600090555060010161010b565b5090565b90565b610259806101396000396000f30060606040526004361061004c576000357c0100000000000000000000000000000000000000000000000000000000900463ffffffff1680632a823430146100515780633f3108f714610103575b600080fd5b341561005c57600080fd5b610088600480803573ffffffffffffffffffffffffffffffffffffffff16906020019091905050610158565b6040518080602001828103825283818151815260200191508051906020019080838360005b838110156100c85780820151818401526020810190506100ad565b50505050905090810190601f1680156100f55780820380516001836020036101000a031916815260200191505b509250505060405180910390f35b341561010e57600080fd5b610116610208565b604051808273ffffffffffffffffffffffffffffffffffffffff1673ffffffffffffffffffffffffffffffffffffffff16815260200191505060405180910390f35b60016020528060005260406000206000915090508054600181600116156101000203166002900480601f0160208091040260200160405190810160405280929190818152602001828054600181600116156101000203166002900480156102005780601f106101d557610100808354040283529160200191610200565b820191906000526020600020905b8154815290600101906020018083116101e357829003601f168201915b505050505081565b6000809054906101000a900473ffffffffffffffffffffffffffffffffffffffff16815600a165627a7a7230582089e5a2c9a836ad0c8043cf6537856b71bc65272c1aee7ebe91d43a7d411a32c20029",
  "source": "pragma solidity ^0.4.16;\r\n\r\ncontract dynamic_set_string {\r\n    address public setter;\r\n    mapping (address => string) public string_data;\r\n    function dynamic_set_string(string tmpString) public {\r\n        string_data[msg.sender] = tmpString;\r\n    }  \r\n}",
  "sourcePath": "/Users/kyrastephen/SmartSponsor/truffle_tutorial/truffleWorkspace/contracts/dynamic_set_string.sol",
  "compiler": {
    "name": "solc",
    "version": "0.4.21+commit.dfe3193c.Emscripten.clang"
  },
  "schemaVersion": "2.0.0",
  "updatedAt": "2018-04-07T17:53:16.045Z"
}