{
  "contractName": "permission_set_string",
  "abi": [
    {
      "constant": true,
      "inputs": [],
      "name": "public_string",
      "outputs": [
        {
          "name": "",
          "type": "string"
        }
      ],
      "payable": false,
      "stateMutability": "view",
      "type": "function"
    },
    {
      "constant": true,
      "inputs": [],
      "name": "owner",
      "outputs": [
        {
          "name": "",
          "type": "address"
        }
      ],
      "payable": false,
      "stateMutability": "view",
      "type": "function"
    },
    {
      "inputs": [],
      "payable": false,
      "stateMutability": "nonpayable",
      "type": "constructor"
    },
    {
      "constant": false,
      "inputs": [
        {
          "name": "tmpString",
          "type": "string"
        }
      ],
      "name": "set_string_data",
      "outputs": [],
      "payable": false,
      "stateMutability": "nonpayable",
      "type": "function"
    }
  ],
  "bytecode": "0x6060604052341561000f57600080fd5b600073ffffffffffffffffffffffffffffffffffffffff166000809054906101000a900473ffffffffffffffffffffffffffffffffffffffff1673ffffffffffffffffffffffffffffffffffffffff1614156100a657336000806101000a81548173ffffffffffffffffffffffffffffffffffffffff021916908373ffffffffffffffffffffffffffffffffffffffff1602179055505b6103a0806100b56000396000f300606060405260043610610057576000357c0100000000000000000000000000000000000000000000000000000000900463ffffffff1680631fe3a7831461005c5780638da5cb5b146100ea578063a7f05b571461013f575b600080fd5b341561006757600080fd5b61006f61019c565b6040518080602001828103825283818151815260200191508051906020019080838360005b838110156100af578082015181840152602081019050610094565b50505050905090810190601f1680156100dc5780820380516001836020036101000a031916815260200191505b509250505060405180910390f35b34156100f557600080fd5b6100fd61023a565b604051808273ffffffffffffffffffffffffffffffffffffffff1673ffffffffffffffffffffffffffffffffffffffff16815260200191505060405180910390f35b341561014a57600080fd5b61019a600480803590602001908201803590602001908080601f0160208091040260200160405190810160405280939291908181526020018383808284378201915050505050509190505061025f565b005b60018054600181600116156101000203166002900480601f0160208091040260200160405190810160405280929190818152602001828054600181600116156101000203166002900480156102325780601f1061020757610100808354040283529160200191610232565b820191906000526020600020905b81548152906001019060200180831161021557829003601f168201915b505050505081565b6000809054906101000a900473ffffffffffffffffffffffffffffffffffffffff1681565b6000809054906101000a900473ffffffffffffffffffffffffffffffffffffffff1673ffffffffffffffffffffffffffffffffffffffff163373ffffffffffffffffffffffffffffffffffffffff1614156102cc5780600190805190602001906102ca9291906102cf565b505b50565b828054600181600116156101000203166002900490600052602060002090601f016020900481019282601f1061031057805160ff191683800117855561033e565b8280016001018555821561033e579182015b8281111561033d578251825591602001919060010190610322565b5b50905061034b919061034f565b5090565b61037191905b8082111561036d576000816000905550600101610355565b5090565b905600a165627a7a723058208f420fa6e9317e447afb07eba511e4bbfc2e1acd29c64207eb56a5d506df1ddd0029",
  "source": "pragma solidity ^0.4.16;\r\n\r\ncontract permission_set_string {\r\n    address public owner;\r\n    string public public_string;\r\n    function permission_set_string() public {\r\n        if (owner == address(0)){\r\n            owner = msg.sender;\r\n        }\r\n    }\r\n    function set_string_data(string tmpString) public {\r\n        if(msg.sender == owner){\r\n            public_string = tmpString;\r\n        }\r\n    }  \r\n}",
  "sourcePath": "/Users/kyrastephen/SmartSponsor/truffle_tutorial/truffleWorkspace/contracts/permission_set_string.sol",
  "compiler": {
    "name": "solc",
    "version": "0.4.21+commit.dfe3193c.Emscripten.clang"
  },
  "schemaVersion": "2.0.0",
  "updatedAt": "2018-04-07T17:53:16.042Z"
}