{
  "contractName": "permission_set_int",
  "abi": [
    {
      "constant": true,
      "inputs": [],
      "name": "owner",
      "outputs": [
        {
          "name": "",
          "type": "address"
        }
      ],
      "payable": false,
      "stateMutability": "view",
      "type": "function"
    },
    {
      "constant": true,
      "inputs": [],
      "name": "public_int",
      "outputs": [
        {
          "name": "",
          "type": "int256"
        }
      ],
      "payable": false,
      "stateMutability": "view",
      "type": "function"
    },
    {
      "inputs": [],
      "payable": false,
      "stateMutability": "nonpayable",
      "type": "constructor"
    },
    {
      "constant": false,
      "inputs": [
        {
          "name": "tmpInt",
          "type": "int256"
        }
      ],
      "name": "set_int_data",
      "outputs": [],
      "payable": false,
      "stateMutability": "nonpayable",
      "type": "function"
    },
    {
      "constant": false,
      "inputs": [
        {
          "name": "_new_owner",
          "type": "address"
        }
      ],
      "name": "change_owner",
      "outputs": [],
      "payable": false,
      "stateMutability": "nonpayable",
      "type": "function"
    }
  ],
  "bytecode": "0x6060604052341561000f57600080fd5b600073ffffffffffffffffffffffffffffffffffffffff16600160009054906101000a900473ffffffffffffffffffffffffffffffffffffffff1673ffffffffffffffffffffffffffffffffffffffff1614156100a85733600160006101000a81548173ffffffffffffffffffffffffffffffffffffffff021916908373ffffffffffffffffffffffffffffffffffffffff1602179055505b610295806100b76000396000f300606060405260043610610062576000357c0100000000000000000000000000000000000000000000000000000000900463ffffffff168063253c8bd4146100675780634bcdc8b5146100a05780638da5cb5b146100c3578063b90f636d14610118575b600080fd5b341561007257600080fd5b61009e600480803573ffffffffffffffffffffffffffffffffffffffff16906020019091905050610141565b005b34156100ab57600080fd5b6100c160048080359060200190919050506101dc565b005b34156100ce57600080fd5b6100d661023d565b604051808273ffffffffffffffffffffffffffffffffffffffff1673ffffffffffffffffffffffffffffffffffffffff16815260200191505060405180910390f35b341561012357600080fd5b61012b610263565b6040518082815260200191505060405180910390f35b600160009054906101000a900473ffffffffffffffffffffffffffffffffffffffff1673ffffffffffffffffffffffffffffffffffffffff163373ffffffffffffffffffffffffffffffffffffffff1614156101d95780600160006101000a81548173ffffffffffffffffffffffffffffffffffffffff021916908373ffffffffffffffffffffffffffffffffffffffff1602179055505b50565b600160009054906101000a900473ffffffffffffffffffffffffffffffffffffffff1673ffffffffffffffffffffffffffffffffffffffff163373ffffffffffffffffffffffffffffffffffffffff16141561023a57806000819055505b50565b600160009054906101000a900473ffffffffffffffffffffffffffffffffffffffff1681565b600054815600a165627a7a72305820b708ff868d0bb77e687c8a0056f3667bb52a94b73741138f153181d51c4e0bab0029",
  "source": "pragma solidity ^0.4.16;\r\n\r\ncontract permission_set_int {\r\n    int256 public public_int;\r\n    address public owner;\r\n    function permission_set_int() public {\r\n        if(owner == address(0)){\r\n            owner = msg.sender;\r\n        }\r\n    }\r\n    function set_int_data(int256 tmpInt) public {\r\n        if(msg.sender == owner){\r\n            public_int = tmpInt;\r\n        }\r\n    }\r\n    function change_owner(address _new_owner) public {\r\n        if(msg.sender == owner){\r\n            owner = _new_owner;\r\n        }\r\n    }    \r\n}",
  "sourcePath": "/Users/kyrastephen/SmartSponsor/truffle_tutorial/truffleWorkspace/contracts/permission_set_int.sol",
  "compiler": {
    "name": "solc",
    "version": "0.4.21+commit.dfe3193c.Emscripten.clang"
  },
  "schemaVersion": "2.0.0",
  "updatedAt": "2018-04-07T17:53:16.044Z"
}