{
  "contractName": "set_int",
  "abi": [
    {
      "constant": true,
      "inputs": [],
      "name": "public_int",
      "outputs": [
        {
          "name": "",
          "type": "int256"
        }
      ],
      "payable": false,
      "stateMutability": "view",
      "type": "function"
    },
    {
      "inputs": [
        {
          "name": "tmpNum",
          "type": "int256"
        }
      ],
      "payable": false,
      "stateMutability": "nonpayable",
      "type": "constructor"
    }
  ],
  "bytecode": "0x6060604052341561000f57600080fd5b6040516020806100dd833981016040528080519060200190919050508060008190555050609c806100416000396000f300606060405260043610603f576000357c0100000000000000000000000000000000000000000000000000000000900463ffffffff168063b90f636d146044575b600080fd5b3415604e57600080fd5b6054606a565b6040518082815260200191505060405180910390f35b600054815600a165627a7a7230582040ad8ddb8c23551d765f72ac0684dba92ba873e8bb57c9e4b7e5f25def9882810029",
  "source": "pragma solidity ^0.4.16;\r\n\r\ncontract set_int {\r\n    int256 public public_int;\r\n    function set_int(int256 tmpNum) public {\r\n        public_int = tmpNum;\r\n    }  \r\n}",
  "sourcePath": "/Users/kyrastephen/SmartSponsor/truffle_tutorial/truffleWorkspace/contracts/set_int.sol",
  "compiler": {
    "name": "solc",
    "version": "0.4.21+commit.dfe3193c.Emscripten.clang"
  },
  "schemaVersion": "2.0.0",
  "updatedAt": "2018-04-07T17:53:16.042Z"
}