{
  "contractName": "smart_contract_wallet",
  "abi": [
    {
      "constant": true,
      "inputs": [],
      "name": "creator",
      "outputs": [
        {
          "name": "",
          "type": "address"
        }
      ],
      "payable": false,
      "stateMutability": "view",
      "type": "function"
    },
    {
      "constant": true,
      "inputs": [
        {
          "name": "",
          "type": "uint32"
        }
      ],
      "name": "transfers_out",
      "outputs": [
        {
          "name": "from",
          "type": "address"
        },
        {
          "name": "amount",
          "type": "uint256"
        }
      ],
      "payable": false,
      "stateMutability": "view",
      "type": "function"
    },
    {
      "constant": true,
      "inputs": [
        {
          "name": "",
          "type": "address"
        }
      ],
      "name": "balances",
      "outputs": [
        {
          "name": "",
          "type": "uint256"
        }
      ],
      "payable": false,
      "stateMutability": "view",
      "type": "function"
    },
    {
      "constant": true,
      "inputs": [
        {
          "name": "",
          "type": "uint32"
        }
      ],
      "name": "transfers_in",
      "outputs": [
        {
          "name": "from",
          "type": "address"
        },
        {
          "name": "amount",
          "type": "uint256"
        }
      ],
      "payable": false,
      "stateMutability": "view",
      "type": "function"
    },
    {
      "inputs": [],
      "payable": false,
      "stateMutability": "nonpayable",
      "type": "constructor"
    },
    {
      "constant": false,
      "inputs": [],
      "name": "update_balance",
      "outputs": [],
      "payable": true,
      "stateMutability": "payable",
      "type": "function"
    },
    {
      "constant": false,
      "inputs": [
        {
          "name": "_amount",
          "type": "uint256"
        },
        {
          "name": "_reciever",
          "type": "address"
        }
      ],
      "name": "withdrawl",
      "outputs": [],
      "payable": false,
      "stateMutability": "nonpayable",
      "type": "function"
    }
  ],
  "bytecode": "0x60606040526001600360006101000a81548163ffffffff021916908363ffffffff1602179055506001600360046101000a81548163ffffffff021916908363ffffffff160217905550341561005357600080fd5b600073ffffffffffffffffffffffffffffffffffffffff16600360089054906101000a900473ffffffffffffffffffffffffffffffffffffffff1673ffffffffffffffffffffffffffffffffffffffff1614156100ec5733600360086101000a81548173ffffffffffffffffffffffffffffffffffffffff021916908373ffffffffffffffffffffffffffffffffffffffff1602179055505b610662806100fb6000396000f300606060405260043610610078576000357c0100000000000000000000000000000000000000000000000000000000900463ffffffff16806302d05d3f1461007d5780630dca3645146100d257806327e235e31461014257806350c741a31461018f57806378773eb8146101ff578063c213313614610241575b600080fd5b341561008857600080fd5b61009061024b565b604051808273ffffffffffffffffffffffffffffffffffffffff1673ffffffffffffffffffffffffffffffffffffffff16815260200191505060405180910390f35b34156100dd57600080fd5b6100f9600480803563ffffffff16906020019091905050610271565b604051808373ffffffffffffffffffffffffffffffffffffffff1673ffffffffffffffffffffffffffffffffffffffff1681526020018281526020019250505060405180910390f35b341561014d57600080fd5b610179600480803573ffffffffffffffffffffffffffffffffffffffff169060200190919050506102b5565b6040518082815260200191505060405180910390f35b341561019a57600080fd5b6101b6600480803563ffffffff169060200190919050506102cd565b604051808373ffffffffffffffffffffffffffffffffffffffff1673ffffffffffffffffffffffffffffffffffffffff1681526020018281526020019250505060405180910390f35b341561020a57600080fd5b61023f600480803590602001909190803573ffffffffffffffffffffffffffffffffffffffff16906020019091905050610311565b005b610249610506565b005b600360089054906101000a900473ffffffffffffffffffffffffffffffffffffffff1681565b60016020528060005260406000206000915090508060000160009054906101000a900473ffffffffffffffffffffffffffffffffffffffff16908060010154905082565b60026020528060005260406000206000915090505481565b60006020528060005260406000206000915090508060000160009054906101000a900473ffffffffffffffffffffffffffffffffffffffff16908060010154905082565b600260003373ffffffffffffffffffffffffffffffffffffffff1673ffffffffffffffffffffffffffffffffffffffff1681526020019081526020016000205482111515610502573360016000600360049054906101000a900463ffffffff1663ffffffff1663ffffffff16815260200190815260200160002060000160006101000a81548173ffffffffffffffffffffffffffffffffffffffff021916908373ffffffffffffffffffffffffffffffffffffffff1602179055508160016000600360049054906101000a900463ffffffff1663ffffffff1663ffffffff168152602001908152602001600020600101819055506001600360008282829054906101000a900463ffffffff160192506101000a81548163ffffffff021916908363ffffffff16021790555081600260003373ffffffffffffffffffffffffffffffffffffffff1673ffffffffffffffffffffffffffffffffffffffff1681526020019081526020016000205403600260003373ffffffffffffffffffffffffffffffffffffffff1673ffffffffffffffffffffffffffffffffffffffff168152602001908152602001600020819055508073ffffffffffffffffffffffffffffffffffffffff166108fc839081150290604051600060405180830381858888f19350505050151561050157600080fd5b5b5050565b33600080600360009054906101000a900463ffffffff1663ffffffff1663ffffffff16815260200190815260200160002060000160006101000a81548173ffffffffffffffffffffffffffffffffffffffff021916908373ffffffffffffffffffffffffffffffffffffffff16021790555034600080600360009054906101000a900463ffffffff1663ffffffff1663ffffffff168152602001908152602001600020600101819055506001600360008282829054906101000a900463ffffffff160192506101000a81548163ffffffff021916908363ffffffff16021790555034600260003373ffffffffffffffffffffffffffffffffffffffff1673ffffffffffffffffffffffffffffffffffffffff168152602001908152602001600020600082825401925050819055505600a165627a7a723058206c4b6a6437cdfc3bce47f36c6a7cbf936d78f03b667b437f838a58b2c252f08c0029",
  "source": "pragma solidity ^0.4.16;\r\n\r\ncontract smart_contract_wallet {\r\n\r\n    struct EthTransfers \r\n    {\r\n        address from;\r\n        uint256 amount;\r\n    }\r\n    mapping (uint32 => EthTransfers) public transfers_in;\r\n    mapping (uint32 => EthTransfers) public transfers_out;\r\n    mapping (address => uint256) public balances;\r\n    uint32 next_transfers_in_num = 1;\r\n    uint32 next_transfers_out_num = 1;\r\n    address public creator;\r\n    function smart_contract_wallet() public {\r\n        if (creator == address(0)){\r\n            creator = msg.sender;\r\n        }\r\n    }\r\n    function update_balance() public payable{\r\n        transfers_in[next_transfers_in_num].from = msg.sender;\r\n        transfers_in[next_transfers_in_num].amount = msg.value;\r\n        next_transfers_in_num += 1;\r\n        balances[msg.sender] += msg.value;\r\n    }\r\n    function withdrawl(uint256 _amount, address _reciever) public {\r\n        if(_amount <= balances[msg.sender]){\r\n            transfers_out[next_transfers_out_num].from = msg.sender;\r\n            transfers_out[next_transfers_out_num].amount = _amount;\r\n            next_transfers_in_num += 1;\r\n            balances[msg.sender] = balances[msg.sender] - _amount;\r\n            _reciever.transfer(_amount);\r\n        }\r\n    }\r\n}",
  "sourcePath": "/Users/kyrastephen/SmartSponsor/truffle_tutorial/truffleWorkspace/contracts/smart_contract_wallet.sol",
  "compiler": {
    "name": "solc",
    "version": "0.4.21+commit.dfe3193c.Emscripten.clang"
  },
  "schemaVersion": "2.0.0",
  "updatedAt": "2018-04-07T17:53:16.048Z"
}